:100000000C9434000C9446000C9446000C9446006A
:100010000C9446000C9446000C9446000C94460048
:100020000C9446000C9446000C9402070C94460075
:100030000C9446000C9446000C9446000C94460028
:100040000C94AA060C9446000C9446000C944600AE
:100050000C9446000C9446000C9446000C94460008
:100060000C9446000C94460011241FBECFEFD8E03C
:10007000DEBFCDBF21E0A0E0B1E001C01D92A531FF
:10008000B207E1F70E946B070C94FC070C94000088
:100090000E943606833711F481E01DC08335E1F3F9
:1000A000893519F480930601F7CF843739F48093AA
:1000B00006018093040110920501EECF883519F4F2
:1000C00080930401E9CF863449F45C9A5A9A90EF00
:1000D00097BD97B598BD809307010895823459F470
:1000E00010920501809307015C985A988FE087BDB4
:1000F00087B588BD08958C3461F410920501809312
:1001000007015C9A5A9880EF87BD8FE088BD2898D8
:100110000895823551F410920501809307015C988F
:100120005A9A8FE087BD80EFF1CF813681F58091BB
:100130000501811103C081E08093030180910001DA
:100140008093070180910701863421F480EF87BDF9
:1001500087B588BD80910701823419F48FE087BD8F
:1001600088BD809107018C3421F480EF87BD8FE03A
:1001700088BD80910701823521F48FE087BD80EF33
:1001800088BD80910701882309F486CF08958634BD
:10019000E9F38136B1F30895DC01FB018091070199
:1001A000823409F58C91883F30F08081883218F0D4
:1001B0008350808388BD8081883230F48C91883F61
:1001C00018F48D5F8C9387BD8C91883F60F490818B
:1001D000983248F08D5F8C938081835080838C911E
:1001E00087BD808188BD80910701863429F58C9177
:1001F000883F38F08081883220F08350808380955A
:1002000088BD8081883238F48C91883F20F48D5FDE
:100210008C93809587BD8C91883F70F49081983243
:1002200058F08D5F8C938081835080838C91809572
:1002300087BD8081809588BD0895FC01DB01809198
:100240000701823409F58C91883F30F08081883233
:1002500018F08350808387BD8081883230F48C9180
:10026000883F18F48D5F8C9388BD8C91883F60F433
:100270009081983248F08D5F8C9380818350808389
:100280008C9188BD808187BD80910701863429F5D6
:100290008C91883F38F08081883220F083508083B1
:1002A000809587BD8081883238F48C91883F20F416
:1002B0008D5F8C93809588BD8C91883F70F4908180
:1002C000983258F08D5F8C938081835080838C911D
:1002D000809588BD8081809587BD0895CF93DF93F9
:1002E000DC01FB01EA0180910701823461F48C9109
:1002F0009881981730F582548C9380819881891762
:1003000010F58D5F8083809107018634B9F49C914C
:1003100088812FEF30E0281B310992171306A9F0CE
:10032000A4F093509C93908188812FEF30E0281B9C
:1003300031099217130664F49D5F9083DF91CF918A
:1003400008959C93DACF9083DECF80958C93EBCF8A
:1003500080958083F3CFCF93DF93FC01DB01EA012B
:1003600080910701823461F48C919881981730F55F
:1003700083508C9380819881891710F58D5F8083DD
:10038000809107018634B9F49C9188812FEF30E089
:10039000281B310992171306A9F0A4F093509C93DF
:1003A000908188812FEF30E0281B310992171306C6
:1003B00064F49D5F9083DF91CF9108959C93DACF91
:1003C0009083DECF80958C93EBCF80958083F3CFA5
:1003D0008F929F92AF92BF92EF92FF920F931F93D3
:1003E000CF93DF9300D01F92CDB7DEB71B821A8266
:1003F000198287B58B8388B58A8387B58983809175
:1004000005018111ABC08091030110E0811103C08F
:100410000E943D06182F80910301813009F0ACC085
:10042000109203010E9471068091070111E6823447
:1004300059F48EE190E00E944606182F111104C075
:100440008B81883F08F42FC28091070100E0863439
:10045000A9F48EE190E00E944606182F8B818095CA
:100460008B838A8180958A8300E0EE24EA94F12CC4
:10047000111104C08B81883F08F42BC280910701C1
:10048000823559F48EE190E00E944606182F111132
:1004900004C08B81843708F4C9C2809107018C3471
:1004A00009F0E4C08EE190E00E944606182F8B818F
:1004B00080958B831111DAC08B81843708F4CDC20B
:1004C00080910401883509F049C080910701863484
:1004D00009F044C080910501813009F43FC00E94B9
:1004E000D6058B3409F030C38BEE87BD88BD5C9A8E
:1004F0005A980E949E064B015C0117E808E70E948B
:10050000D605863409F00CC38BEE87BD84E188BD27
:100510005C9A5A9A898187BD898188BD00E00E94D2
:10052000D605813509F028C38BEE87BD88BD5A9A60
:100530005C980E949E064B015C0118E707E80E9448
:10054000D605863409F004C384E187BD8BEE88BDEF
:100550005C9A5A9A898187BD898188BD0F900F90D6
:100560000F90DF91CF911F910F91FF90EF90BF906F
:10057000AF909F908F9008951C34C9F50E9471062A
:1005800080910701823479F48EE190E00E94460662
:10059000182F112309F4BBC08B8199818913CFC017
:1005A0009A818913CCC080910701863401F58EE1D0
:1005B00090E00E944606182F8B8180958B838A815C
:1005C00080958A83112309F4D4C0EE24EA94F12C97
:1005D0008B8190E02981A701421B5109841795075F
:1005E00009F0DFC02A812817190609F0DAC0123590
:1005F000C9F50E94710680910701823479F48EE179
:1006000090E00E944606182F112309F4E6C08B8162
:1006100099818913FAC09A818913F7C080910701E3
:10062000863401F58EE190E00E944606182F8B81FA
:1006300080958B838A8180958A83112309F4FFC07A
:10064000EE24EA94F12C8B8190E02981A701421BD2
:1006500051098417950709F00AC12A81281719063C
:1006600009F005C100E0113609F4DCCE143609F0BA
:1006700027CF0E94710680910701823409F404C2D9
:1006800080910701863469F48EE190E00E9446066D
:100690009B8190959B83811104C08B818F3008F0E2
:1006A00012C280910701823551F48EE190E00E94E0
:1006B0004606811104C08B818F3008F01BC28091E7
:1006C00007018C3409F0FCCE8EE190E00E944606D2
:1006D0009B8190959B838111F3CE8B818F3008F4A1
:1006E000EFCE90910501913009F438CF87508B837C
:1006F000809587BD8B8188BD8EE190E00E94460683
:10070000EFE9FFE03197F1F700C00000E4CF8091FE
:100710000501813009F422CFBE016E5F7F4FCE010B
:1007200003960E94CC008EE190E00E944606182FAE
:100730008FE99FE00197F1F700C000002ACF809178
:100740000501813009F40ACFAE014F5F5F4FBE0152
:100750006E5F7F4FCE0103960E946E018B8187BD35
:100760008A8188BDEFE9FFE03197F1F700C0000012
:1007700013CF80910501813009F4F0CEBE016E5F88
:100780007F4FCE0103960E94CC008EE190E00E9444
:100790004606182F8FE99FE00197F1F700C000008F
:1007A00011CF80910501813009F4D8CEAE014F5FA1
:1007B0005F4FBE016E5F7F4FCE0103960E946E01B8
:1007C0008B81809587BD8A81809588BDEFE9FFE0A8
:1007D0003197F1F700C00000FBCE80910501813018
:1007E00009F4BCCEBE016E5F7F4FCE0103960E941E
:1007F0001D018EE190E00E944606182F8FE99FE0D0
:100800000197F1F700C00000FFCE80910501813013
:1008100009F4A4CEAE014F5F5F4FBE016E5F7F4F04
:10082000CE0103960E94AB018B8187BD8A8188BD72
:10083000EFE9FFE03197F1F700C00000E8CE8091CA
:100840000501813009F48ACEBE016E5F7F4FCE0173
:1008500003960E941D018EE190E00E944606182F2B
:100860008FE99FE00197F1F700C00000E6CE80918C
:100870000501813009F472CEAE014F5F5F4FBE01BA
:100880006E5F7F4FCE0103960E94AB018B818095F6
:1008900087BD8A81809588BDEFE9FFE03197F1F748
:1008A00000C00000D0CE90910501913009F456CEE1
:1008B0008D5F8B8387BD8B8188BD8EE190E00E9428
:1008C0004606182F8FE99FE00197F1F700C000005E
:1008D000B5CD90910501913009F440CE8D5F8B83A9
:1008E0009A819D5F9A83809587BD8B81809588BD15
:1008F00087B58983809104018835C9F40E949E06DA
:100900004B015C010E94D6058634E9F40B3409F0F2
:1009100060C08B8190E02981A701421B5109841797
:100920009507D9F52A8128171906B9F500E08EE157
:1009300090E00E944606182F8FE99FE00197F1F79B
:1009400000C0000095CD0E949E06681979098A09A9
:100950009B096932710581059105C0F680910501F9
:10096000813009F4FBCD0E94D6058B3441F4BE01E1
:100970006E5F7F4FCE0103960E94CC000BE40E9475
:10098000D605813509F0BECFBE016E5F7F4FCE0127
:1009900003960E941D0101E5B5CF809105018130CC
:1009A00009F4DCCDAE014F5F5F4FBE016E5F7F4F3C
:1009B000CE0103960E946E018B81809587BD8A814E
:1009C000809588BDEFE9FFE03197F1F700C00000A6
:1009D000A0CF013509F0ABCF8B8190E02981F701E1
:1009E000E21BF1098E179F0729F42A81281719069F
:1009F00009F49CCF80910501813009F4AFCDAE019F
:100A00004F5F5F4FBE016E5F7F4FCE0103960E9426
:100A1000AB018B81809587BD8A81809588BD8FE9E8
:100A20009FE00197F1F700C00000D6CF909105013B
:100A3000913009F493CD8D5F8B8387BD8B81809539
:100A400088BD8EE190E00E944606182FEFE9FFE096
:100A50003197F1F700C000001ACD90910501913057
:100A600009F47CCD8D5F8B83809587BD8B8188BD9C
:100A70008EE190E00E944606182F8FE99FE00197D3
:100A8000F1F700C0000016CD8EE190E00E9446060E
:100A90008111F6CD8B818F3008F4F2CD9091050154
:100AA000913009F45BCD87508B8387BD8B8188BDE6
:100AB0008EE190E00E944606EFE9FFE03197F1F702
:100AC00000C00000E5CF90910501913009F446CDBA
:100AD00087508B83809587BD8B81809588BD8EE103
:100AE00090E00E944606EFE9FFE03197F1F700C081
:100AF0000000D1CD90910501913009F42FCD8750A0
:100B00008B8387BD8B81809588BD8EE190E00E94AC
:100B10004606EFE9FFE03197F1F700C00000C9CDCC
:100B20000E949E06681979098A099B096932710534
:100B30008105910508F0E8CC80910501813009F428
:100B40000DCD17BD08BDDBCC0B3409F0E8CCDCCCF7
:100B50000E949E06681979098A099B096932710504
:100B60008105910508F0F0CC80910501813009F4F0
:100B7000F5CC17BD08BDE3CC013509F0EFCCE4CCD2
:100B800087B587B58F3A80F487B58A3668F086E1F5
:100B900097B59A3620F497B5943208F089E197B565
:100BA000943208F48CE108958CE0F2CF1C9B04C0D1
:100BB0001D9902C01B9B20C01C9B04C01D9B02C032
:100BC0001B9B1AC01C9904C01D9902C01B9916C01A
:100BD0001C9904C01D9B02C01B9910C01C9B04C023
:100BE0001D9B02C01B9906C01C990AC01D9B08C012
:100BF0001B9906C086E408958BE4089581E5089565
:100C000080E00895569A559A549A529A579A209885
:100C10002498259823985C985A985F9828982C983F
:100C20002D982B980895B0E0A0E09C01AD0183E0E1
:100C3000220F331F441F551F8A95D1F760E074E2DD
:100C400084EF90E00E94DA07215031093093C5000B
:100C50002093C400E0ECF0E080818260808388E132
:100C60008093C10086E08093C20008958091C00007
:100C700087FFFCCF8091C60008958091C00087FF58
:100C800003C08091C600089580E008958F929F92DE
:100C9000AF92BF92CF92DF92EF92FF926C010E94CF
:100CA0009E064B015C01F12CE12C8091C00087FF76
:100CB0000BC08091C600FF90EF90DF90CF90BF9067
:100CC000AF909F908F9008950E949E0668197909B1
:100CD0008A099B09C616D706E806F90630F780E0B0
:100CE000EACFCF93DF931F92CDB7DEB78091C000DC
:100CF00087FD04C00F90DF91CF9108958091C600C9
:100D00008983F4CF10928000E1E8F0E010828081C6
:100D100082648083EFE6F0E08081806280831092BD
:100D2000850010928400089583EA84BD83E085BD28
:100D3000EEE6F0E080818160808308952FB7F8941B
:100D4000609108017091090180910A0190910B0155
:100D50002FBF08951F920F920FB60F9211242F9359
:100D60008F939F93AF93BF93809108019091090156
:100D7000A0910A01B0910B010196A11DB11D8093B4
:100D8000080190930901A0930A01B0930B0180918F
:100D9000110190911201A0911301B09114010196DB
:100DA000A11DB11D8093110190931201A093130115
:100DB000B09314012091100121111AC0CC97A10504
:100DC000B10560F05F9A81E08093100110921101EB
:100DD000109212011092130110921401BF91AF9161
:100DE0009F918F912F910F900FBE0F901F9018958C
:100DF0002130A1F7892B8A2B8B2B81F35F981092DE
:100E00001001E4CF1F920F920FB60F9211242F936F
:100E10003F934F935F936F937F938F939F93AF9382
:100E2000BF93CF93DF93EF93FF938091810086FF71
:100E300020C0809186009091870090930F0180934D
:100E40000E01809181008F7B80938100FF91EF9153
:100E5000DF91CF91BF91AF919F918F917F916F91D2
:100E60005F914F913F912F910F900FBE0F901F9068
:100E70001895809186009091870090930D01809342
:100E80000C018091810080648093810080910C012D
:100E900090910D0120910E0130910F01821B930B57
:100EA00064E770E00E94C607EB010E94C0058C1742
:100EB0001D0660F2CD2B51F280910601893531F685
:100EC00080910701863411F685EF87BD88BD81E0EA
:100ED00080930501BBCF789480E895E20E941306C9
:100EE0000E9402060E9494060E94820686E287BD46
:100EF00088BDC1E0D0E0809101019091020100978E
:100F000051F181309105D9F70E94E80187B58F3002
:100F100020F4809107018234A9F087B5813F20F049
:100F200080910701863471F087B58F3020F480916D
:100F30000701823539F087B5813FE8F280910701DA
:100F40008C34C9F6109202011092010180910701C0
:100F500080930001D0CF0E9471060E9448002FEFBD
:100F600089EF90E0215080409040E1F700C0000000
:100F700080910701813009F4BECF80910501811174
:100F8000BACFD0930201C0930101B5CFAA1BBB1BFE
:100F900051E107C0AA1FBB1FA617B70710F0A61B79
:100FA000B70B881F991F5A95A9F780959095BC019A
:100FB000CD010895A1E21A2EAA1BBB1BFD010DC095
:100FC000AA1FBB1FEE1FFF1FA217B307E407F507F9
:100FD00020F0A21BB30BE40BF50B661F771F881FD5
:100FE000991F1A9469F760957095809590959B016B
:0C0FF000AC01BD01CF010895F894FFCFC3
:00000001FF
